:100000000C9462000C948A000C948A000C948A0070
:100010000C948A000C948A000C948A000C948A0038
:100020000C948A000C948A000C948A000C94D705D6
:100030000C948A000C948A000C948A000C948A0018
:100040000C948D050C948A000C948A000C948A0000
:100050000C948A000C948A000C948A000C948A00F8
:100060000C9493060C948A000000000023002600E4
:10007000290000000000240027002A0000000000E2
:10008000250028002B0004040404040404040202D4
:100090000202020203030303030301020408102007
:1000A0004080010204081020010204081020000012
:1000B0000008000201000003040700000000000027
:1000C0000000F70711241FBECFEFD8E0DEBFCDBF81
:1000D00011E0A0E0B1E0E4E0F7E102C005900D928C
:1000E000A636B107D9F722E0A6E6B1E001C01D921D
:1000F000AC36B207E1F710E0C2E6D0E004C02197C9
:10010000FE010E947A0BC136D107C9F70E943D0853
:100110000C94800B0C9400008F929F92AF92BF9230
:10012000FF920F931F93CF93DF93F0905D022BE02C
:100130002F1508F455C020915F0208E512E0021B5C
:10014000110927FD1395000F111F000F111F20919A
:100150005E02C8E8D0E0C21BD10927FDD395CC0FC1
:10016000DD1FCC0FDD1F4E010D2E000CAA08BB08B1
:10017000DC01853B910514F0A4EBB0E0B7FF02C0B1
:10018000B0E0A0E09801012E000C440B550B28199B
:1001900039094A095B090E94040A24EB30E040E077
:1001A00050E00E94DA09820E931EA41EB51E8C1622
:1001B0009D062CF0E801801691060CF4E4012297CC
:1001C000CC0FDD1F2FB7F8948F2D90E0FC01EE0FC0
:1001D000FF1FE80FF91FE85CFD4FD283C1832FBFDB
:1001E000DF91CF911F910F91FF90BF90AF909F90A3
:1001F0008F90089590E0FC01E255FF4F2491FC019F
:10020000E656FF4F3491FC01EA57FF4FE491EE238D
:10021000C9F0222339F0233001F1A8F4213019F17B
:10022000223029F1F0E0EE0FFF1FE458FF4FA591B7
:10023000B4918FB7F894EC91611126C030953E23AC
:100240003C938FBF08952730A9F02830C9F024309F
:1002500049F7809180008F7D03C0809180008F7767
:1002600080938000DFCF84B58F7784BDDBCF84B5EA
:100270008F7DFBCF8091B0008F778093B000D2CF7D
:100280008091B0008F7DF9CF3E2BDACFCF93DF93F3
:1002900090E0FC01E656FF4F24918A579F4FFC01E6
:1002A00084918823D1F090E0880F991FFC01EE58CB
:1002B000FF4FA591B491FC01E458FF4FC591D49133
:1002C00061110EC09FB7F8948C91E22FE0958E23B8
:1002D0008C932881E223E8839FBFDF91CF9108951B
:1002E0008FB7F894EC91E22BEC938FBFF6CF3FB72A
:1002F000F8948091280290912902A0912A02B0914D
:100300002B0226B5A89B05C02F3F19F00196A11D11
:10031000B11D3FBFBA2FA92F982F8827BC01CD014F
:10032000620F711D811D911D42E0660F771F881FAE
:10033000991F4A95D1F708958F929F92AF92BF92DD
:10034000CF92DF92EF92FF924B015C010E94770106
:100350006B017C010E9477016C197D098E099F0950
:10036000683E734081059105A8F321E0821A910847
:10037000A108B10888EEC80E83E0D81EE11CF11C6C
:1003800081149104A104B10429F7FF90EF90DF904C
:10039000CF90BF90AF909F908F900895089508954B
:1003A000AF92BF92CF92DF92EF92FF920F931F9383
:1003B000CF93DF936C017B018B01040F151FEB01C1
:1003C0005E01AE18BF08C017D10759F06991D60178
:1003D000ED91FC910190F081E02DC6010995892BEA
:1003E00079F7C501DF91CF911F910F91FF90EF90A9
:1003F000DF90CF90BF90AF90089508952091A7010E
:10040000260F3327331F21323105ECF42091F00100
:10041000FC0190E080E0243069F082E00895A09132
:10042000A7012191AC0149575E4FA40FB52FB11D13
:100430002C930196861798F38091A701680F60931B
:10044000A70180E0089581E008951092F00181E015
:100450008093EF011092CA0161E082E10E94FA00EC
:1004600061E083E10E94FA00E9EBF0E080818E7F99
:10047000808380818D7F808388E48093B80085E4C9
:100480008093BC000895CF93DF9391E09093860111
:100490008823B9F0C091B800D091BA008091BC0017
:1004A0008A7B8093BC0060E082E10E94FA0060E0F9
:1004B00083E10E94FA000E942502D093BA00C09303
:1004C000B800DF91CF9108950895E09120028091C6
:1004D0001F02E81730F4F0E0EA59FE4F808190E007
:1004E00008958FEF9FEF08959091200280911F0251
:1004F0002FEF3FEF981748F4E92FF0E0EA59FE4F4D
:10050000208130E09F5F90932002C901089580917F
:100510001F0290912002891B990B0895CF92DF92C0
:10052000EF92FF920F931F93CF93DF937C01CB0148
:100530008A012091F601222389F0EB016B01C40EA0
:10054000D51ECC15DD0569F06991D701ED91FC91BF
:100550000190F081E02DC7010995F3CF642F0E942F
:10056000FE01C801DF91CF911F910F91FF90EF9095
:10057000DF90CF900895CF93DF931F92CDB7DEB772
:1005800069832091F6012223F9F020911D02203287
:1005900058F021E030E0FC013383228390E080E0DA
:1005A0000F90DF91CF91089580911E02E82FF0E027
:1005B000E950FE4F998190838F5F80931E02809354
:1005C0001D0281E090E0ECCF61E0CE0101960E9437
:1005D000FE01F7CFCF92DF92EF92FF920F931F931E
:1005E000CF93DF93FC01C48121E02093F601C093F7
:1005F000170210921E0210921D028385682B8CE256
:1006000092E00E94BB02D0911D02D13208F092C04C
:100610000E9477016B017C018091F001811165C01E
:1006200082E08093F00181E08093EF018FEF80936F
:10063000EE011092ED01D093EC01A7EFB1E0ECECEC
:10064000F1E080E0D81385C01092CB018091CB01FE
:10065000CC0FC82BC093CB018091CA01813009F027
:100660007CC01092CA010E9477016B017C018091CD
:10067000CB018093BB008091F2019091F301A09196
:10068000F401B091F501892B8A2B8B2B99F00E94F4
:1006900077010091F2011091F3012091F401309162
:1006A000F5016C197D098E099F09061717072807A0
:1006B0003907E0F18091BC0083FDD9CF85EC8093B0
:1006C000BC000E9477016B017C018091F0018230B7
:1006D00009F445C08091EE018F3F61F18091EE01F8
:1006E000803241F18091EE0125C08091F20190911C
:1006F000F301A091F401B091F501892B8A2B8B2B8A
:1007000009F48ACF0E9477010091F2011091F30160
:100710002091F4013091F5016C197D098E099F0932
:10072000061717072807390708F076CF8091F101DF
:100730000E94430210921E0210921D021092F601B6
:10074000DF91CF911F910F91FF90EF90DF90CF90AD
:1007500008959D9191938F5F75CF85EEB0CF809175
:10076000F2019091F301A091F401B091F501892B70
:100770008A2B8B2B09F4A9CF0E9477010091F201FB
:100780001091F3012091F4013091F5016C197D096C
:100790008E099F09061717072807390708F095CF14
:1007A000C5CF90E080E008950197439760F461E041
:1007B00087E00E94FA0061E084E00E94FA0060E0B5
:1007C00083E00C94FA0060E087E00E94FA0060E0A9
:1007D00084E00E94FA0061E0F3CF8F929F92AF9283
:1007E000BF920F931F93CF93DF93CDB7DEB7A1973F
:1007F0000FB6F894DEBF0FBECDBF19A2423008F489
:100800004AE08E010F5D1F4F842E912CB12CA12C3C
:10081000A50194010E940C0AE62FB901CA01EA3031
:1008200044F5E05DD801EE938D01232B242B252B7D
:1008300079F790E080E0109769F0FD0101900020C9
:10084000E9F73197AF014A1B5B0BBD0180E692E0EF
:100850000E94D001A1960FB6F894DEBF0FBECDBFA7
:10086000DF91CF911F910F91BF90AF909F908F908C
:100870000895E95CD7CFFC0101900020E9F731979A
:10088000AF01481B590BBC0180E692E00C94D001EB
:100890000F931F93CF938C01C62F0E94EA026C2FF7
:1008A0006460C8010E94EA026C2F6B7FC8010E943D
:1008B000EA0283EC90E00197F1F7CF911F910F913D
:1008C00008950F931F93CF93DF938C01D62FC42FDE
:1008D000607F642B0E94480480E1D89FB0011124FE
:1008E0006C2BC801DF91CF911F910F910C9448049C
:1008F00041E00E94610481E090E00895CF92DF9290
:10090000EF92FF926B017C0141E06DE280E692E0A4
:100910000E94610466277727CB016C197D098E0937
:100920009F094AE00E94ED030196FF90EF90DF904F
:10093000CF900895CF93DF93CDB7DEB728970FB64A
:10094000F894DEBF0FBECDBF98E0E0E0F1E0DE013D
:10095000119601900D929A95E1F79091680298177F
:1009600008F48FEF90E0880F991F21E030E02C0F02
:100970003D1F820F931FFC016081606840E080E6AC
:1009800092E028960FB6F894DEBF0FBECDBFDF9180
:10099000CF910C9461040F931F93CF93DF938C013D
:1009A000EB0180E00E949A0486E291E00E943B0401
:1009B000B801012E000C880B990B17FF1BC00E9479
:1009C0007E048CE291E00E943B0481E00E949A0444
:1009D00082E391E00E943B04C13981E0D80714F41E
:1009E000209761F48BE391E0DF91CF911F910F91FC
:1009F0000C943B044AE00E94ED03E3CFBE01DD0FFF
:100A0000880B990B97FF05C00E947E0482E491E059
:100A1000EBCF4AE00E94ED03F9CF85ED8093BC0057
:100A20008091F2019091F301A091F401B091F50150
:100A30000796A11DB11D23E0B695A79597958795BB
:100A40002A95D1F72091BC0024FD03C01092F0013B
:100A500008954091F2015091F3016091F401709179
:100A6000F501452B462B472B69F30097A105B105EE
:100A700041F02AE22A95F1F700C00197A109B109D6
:100A8000E1CF8091F1010C9443020F931F9360E03A
:100A90008CE00E94FA0083E090E00197F1F761E0BA
:100AA0008CE00E94FA0083E290E00197F1F760E0A9
:100AB0008CE00E94FA00E2EAF0E06491EEE8F0E0F7
:100AC000E491F0E0EE0FFF1FE859FF4F85919491FC
:100AD00000E412E42FE030E0462F0E94B2076115D7
:100AE00071058105910529F06F5F7F4F8F4F9F4FF3
:100AF0009F700E94750A26E933E44BE05DE30E9493
:100B0000D90A20E030E040E05FE30E94D90A0E9469
:100B10003D0ACB011F910F9108951F920F920FB6BE
:100B20000F9211242F933F938F939F93AF93BF9373
:100B30008091240290912502A0912602B091270273
:100B40003091230223E0230F2D3758F50196A11D84
:100B5000B11D209323028093240290932502A09339
:100B60002602B09327028091280290912902A09139
:100B70002A02B0912B020196A11DB11D809328027B
:100B800090932902A0932A02B0932B02BF91AF91B8
:100B90009F918F913F912F910F900FBE0F901F90BB
:100BA000189526E8230F0296A11DB11DD2CF1F92E2
:100BB0000F920FB60F9211242F933F934F935F9391
:100BC0006F937F938F939F93AF93BF93CF93DF9355
:100BD000EF93FF9380911802C0915C02D0E087FFF1
:100BE00024C01092850010928400809118028F5FBB
:100BF0008093180280911802082E000C990B8C1714
:100C00009D0724F4809118028C30C4F180918400F7
:100C100090918500049680349C4908F47AC08091B4
:100C2000840090918500049676C080911802082E69
:100C3000000C990B8C179D07C4F6E09118028E2FBB
:100C4000EE0F990BFC01EE0FFF1FE80FF91FE85C98
:100C5000FD4F808186FFC9CFE09118028E2FEE0FE5
:100C6000990BFC01EE0FFF1FE80FF91FE85CFD4F29
:100C7000808160E08F730E94FA00B7CF20918400DA
:100C800030918500E09118028E2FEE0F990BFC0138
:100C9000EE0FFF1FE80FF91FE85CFD4F8181928185
:100CA000820F931F9093890080938800E09118022F
:100CB0008E2FEE0F990BFC01EE0FFF1FE80FF91FAF
:100CC000E85CFD4F808186FF11C0E09118028E2FF5
:100CD000EE0F990BFC01EE0FFF1FE80FF91FE85C08
:100CE000FD4F808161E08F730E94FA00FF91EF91C8
:100CF000DF91CF91BF91AF919F918F917F916F9134
:100D00005F914F913F912F910F900FBE0F901F90C9
:100D1000189580E49CE990938900809388008FEF78
:100D200080931802E3CF1F920F920FB60F921124F7
:100D30002F933F934F935F936F937F938F939F93E3
:100D4000AF93BF93EF93FF938091B900887F803674
:100D500009F44AC0F0F5883209F4A7C018F58031CB
:100D600009F49BC0B8F4882309F4F9C0883009F469
:100D700094C0FF91EF91BF91AF919F918F917F911F
:100D80006F915F914F913F912F910F900FBE0F90F8
:100D90001F901895883109F488C0803251F78093EC
:100DA000EE0114C0803409F49DC040F48033B9F3DF
:100DB0008833F9F68093EE0185ECB0C0803509F4F4
:100DC00085C0883509F496C0883499F60E940D05CF
:100DD000D0CF883909F48CC038F5883729F050F421
:100DE000883611F0803729F683E08093F001109265
:100DF000C90157C0883809F47BC0803919F08038A0
:100E000009F0B7CF8091C901803208F071C0E0913C
:100E1000C90181E08E0F8093C9018091BB00F0E091
:100E2000E755FE4F80833DC0803B39F0E0F4803AC7
:100E300009F479C0883A09F09CCF84E08093F001EE
:100E40001092A8011092A701E0911B02F0911C02E0
:100E500009958091A70181110FC081E08093A701BE
:100E60001092870109C0803C09F4A6CF883C09F4A0
:100E7000A3CF883B09F07DCFE091A80181E08E0FE0
:100E80008093A801F0E0E957FE4F80818093BB007A
:100E90009091A8018091A70129C08091CB018093F6
:100EA000BB0085EC8093BC0064CF9091ED018091F4
:100EB000EC01981758F5E091ED0181E08E0F8093D9
:100EC000ED01F0E0E453FE4F8081E9CFE091ED01C8
:100ED00081E08E0F8093ED018091BB00F0E0E45340
:100EE000FE4F80839091ED018091EC019817C8F23C
:100EF00085E8D8CFE091ED0181E08E0F8093ED0180
:100F00008091BB00F0E0E453FE4F80838091EF01BD
:100F100081115CCF81E08093CA0184EA8093BC0098
:100F20001092F00126CF85EC8093BC001092F00166
:100F30008091C901803230F4E091C901F0E0E755B9
:100F4000FE4F10826091C90170E0E0911902F091AA
:100F50001A0289EA91E009951092C9010ACF10920C
:100F6000EE0134CFCF92DF92EF92FF920F931F9357
:100F7000E82FF92F05C0015011092109310961F14C
:100F8000908196239417B9F305C0015011092109E6
:100F9000310911F1908196239413F7CFC12CD12CF4
:100FA000E12CF12C0AC08FEFC81AD80AE80AF80A17
:100FB0000C151D052E053F0579F0808186238417C9
:100FC00091F36C2D7D2D8E2D9F2D1F910F91FF90F4
:100FD000EF90DF90CF90089560E070E080E090E0C7
:100FE0001F910F91FF90EF90DF90CF900895109296
:100FF0002F0210922E0288EE93E0A0E0B0E08093E2
:10100000300290933102A0933202B09333028CE00D
:1010100091E090932D0280932C0210926302109223
:1010200062028EE191E0909361028093600280E21F
:101030008093640280E18093690282E080936A0277
:1010400010926B0280915C028C3098F491E0980FC2
:1010500090935C0280935D0290E0FC01EE0FFF1F15
:10106000E80FF91FE85CFD4F88EB9BE092838183DA
:1010700008958FEF80935D020895789484B582601F
:1010800084BD84B5816084BD85B5826085BD85B52C
:10109000816085BD80916E00816080936E001092AA
:1010A0008100809181008260809381008091810025
:1010B00081608093810080918000816080938000B6
:1010C0008091B10084608093B1008091B000816014
:1010D0008093B00080917A00846080937A00809140
:1010E0007A00826080937A0080917A008160809398
:1010F0007A0080917A00806880937A001092C10013
:1011000061E08CE00E94460160E088E00E944601B8
:1011100061E087E00E94460161E084E00E944601B0
:1011200061E083E00E94460161E083E00E94FA00F2
:1011300080915D028C3008F051C061E086E00E9431
:10114000460180915D02282F30E0F901EE0FFF1F6C
:10115000E20FF31FE85CFD4F9081907C96609083D6
:1011600010925E0210925F022CE0622F0E946E0BC2
:10117000829FB001112430E020E0AB01420F531FE9
:10118000FA01EE0FFF1FE40FF51FE85CFD4F9081A1
:1011900096FD16C02F5F3F4F2C30310571F781113E
:1011A0000FC01092800082E0809381001092850031
:1011B00010928400B19A80916F00826080936F00DA
:1011C000E0915D028E2F90E0FC01EE0FFF1FE80F13
:1011D000F91FE85CFD4F80818064808310922002BB
:1011E00010921F0210921E0210921D020E942502F0
:1011F0008EEC91E090931C0280931B028FEC91E0A7
:1012000090931A02809319021092650280916A02EB
:10121000823018F098E0909365028093680262E350
:1012200070E080E090E00E949C0160916B0280E69B
:1012300092E00E94EA0268EE73E080E090E00E9493
:101240009C0160E380E692E00E944804CBE4D6E48F
:10125000CE010197F1F760E380E692E00E94480436
:101260002197F1F760E380E692E00E94480483E56D
:1012700092E00197F1F760E280E692E00E94480474
:1012800060916502606240E080E692E00E94610445
:1012900084E08093660240E06CE080E692E00E9489
:1012A000610440E061E080E692E00E946104CBE3EB
:1012B000DFE1CE010197F1F782E08093670240E021
:1012C00066E080E692E00E94610440E062E080E631
:1012D00092E00E946104CE010197F1F788E08093CB
:1012E0006B0260E080E692E00E94EA0280E00E94E9
:1012F0009A0488E491E00E943B0481E00E949A04F1
:1013000086E591E00E943B0460ED77E080E090E0AC
:101310000E949C0140E061E080E692E00E9461044E
:101320002197F1F700E010E0D0E0C0E0CE010E948C
:101330008C0069E670E080E090E00E949C010E94D1
:1013400045059093220280932102BC01CE010E94A8
:10135000CB0480912102909122020E94D403229614
:10136000C63BD10519F7C4EBD0E0CE010E948C003A
:1013700069E670E080E090E00E949C010E944505D3
:101380009093220280932102BC01CE010E94CB04E3
:1013900080912102909122020E94D4032297CE3F95
:1013A0008FEFD80711F70115110509F4BDCF0E9481
:1013B0000000BACF052E97FB1EF400940E94F1099D
:1013C00057FD07D00E940C0A07FC03D04EF40C9482
:1013D000F10950954095309521953F4F4F4F5F4F04
:1013E000089590958095709561957F4F8F4F9F4F91
:1013F00008950E942E0AA59F900DB49F900DA49F62
:10140000800D911D11240895B7FF0C94F9090E94D5
:10141000F909821B930B0895A1E21A2EAA1BBB1B8C
:10142000FD010DC0AA1FBB1FEE1FFF1FA217B307B0
:10143000E407F50720F0A21BB30BE40BF50B661FC6
:10144000771F881F991F1A9469F76095709580958A
:1014500090959B01AC01BD01CF010895A29FB00101
:10146000B39FC001A39F700D811D1124911DB29FD8
:10147000700D811D1124911D08950E94440A6894E5
:10148000B1110C94D30A08950E94B80A88F09F57AE
:1014900098F0B92F9927B751B0F0E1F0660F771F98
:1014A000881F991F1AF0BA95C9F714C0B13091F08E
:1014B0000E94D20AB1E008950C94D20A672F782FC7
:1014C0008827B85F39F0B93FCCF386957795679553
:1014D000B395D9F73EF490958095709561957F4FBF
:1014E0008F4F9F4F0895E89409C097FB3EF4909565
:1014F0008095709561957F4F8F4F9F4F9923A9F0ED
:10150000F92F96E9BB279395F6958795779567957B
:10151000B795F111F8CFFAF4BB0F11F460FF1BC0BF
:101520006F5F7F4F8F4F9F4F16C0882311F096E952
:1015300011C0772321F09EE8872F762F05C0662300
:1015400071F096E8862F70E060E02AF09A95660FB9
:10155000771F881FDAF7880F9695879597F9089572
:1015600057FD9058440F551F59F05F3F71F0479554
:10157000880F97FB991F61F09F3F79F08795089539
:10158000121613061406551FF2CF4695F1DF08C058
:10159000161617061806991FF1CF86957105610575
:1015A00008940895E894BB2766277727CB0197F91D
:1015B00008950E94EC0A0C945D0B0E944F0B38F0CA
:1015C0000E94560B20F0952311F00C94460B0C94BE
:1015D0004C0B11240C94D30A0E94B00A70F3959F0F
:1015E000C1F3950F50E0551F629FF001729FBB271A
:1015F000F00DB11D639FAA27F00DB11DAA1F649FB6
:101600006627B00DA11D661F829F2227B00DA11D68
:10161000621F739FB00DA11D621F839FA00D611DEE
:10162000221F749F3327A00D611D231F849F600D0F
:10163000211D822F762F6A2F11249F5750409AF038
:10164000F1F088234AF0EE0FFF1FBB1F661F771FC4
:10165000881F91505040A9F79E3F510580F00C948F
:10166000460B0C94D30A5F3FE4F3983ED4F386957F
:1016700077956795B795F795E7959F5FC1F7FE2B2F
:10168000880F911D9695879597F9089597F99F670B
:1016900080E870E060E008959FEF80EC08950024FA
:1016A0000A941616170618060906089500240A94C7
:1016B00012161306140605060895092E0394000C4D
:1016C00011F4882352F0BB0F40F4BF2B11F460FFDC
:1016D00004C06F5F7F4F8F4F9F4F0895991B79E034
:1016E00004C0991F961708F0961B881F7A95C9F7B2
:1016F00080950895EE0FFF1F0590F491E02D099459
:04170000F894FFCF8B
:10170400000040001400540000000000BB028E02E0
:10171400D1036402870274026502000000007804A9
:10172400D001D103FD014163693A200020642020E7
:1017340020004D65736166653A2000594F4B2020A7
:10174400200020636D20200052616461722053697F
:101754007374656D69004261736C6174696C697955
:061764006F722E2E2E0014
:00000001FF
